:100000000C9434000C9449000C9449000C94490061
:100010000C9449000C9449000C9449000C9449003C
:100020000C9449000C9449000C9449000C9449002C
:100030000C9449000C9449000C9449000C9449001C
:100040000C9449000C9449000C9449000C9449000C
:100050000C9449000C9449000C9449000C944900FC
:100060000C9449000C94490011241FBECFEFD8E036
:10007000DEBFCDBF11E0A0E0B1E0E4EBF3E002C0F1
:1000800005900D92A634B107D9F70E9430010C9467
:10009000D8010C9400005F9825E02A95F1F7000044
:1000A0005F9A5C9898E080E0880F4D9981605E9A35
:1000B00025E02A95F1F700005E989150A9F75C9A27
:1000C0008095089527E030E090E0AC01022E02C058
:1000D000559547950A94E2F740FF09C0289A299A56
:1000E00029982150310988F72A9A2A980895289842
:1000F000F6CFCF93C82FC295C07F6111C1608C2FFE
:1001000084600E94620085E08A95F1F700008C2FE0
:100110000E94620087EC90E00197F1F700C00000B8
:10012000CF910895CF93C82F60E082958F700E9481
:10013000790060E08C2F8F700E947900C150C2302E
:1001400030F48FE39FE10197F1F700C00000CF91F9
:100150000895CF93C82F61E082958F700E94790037
:1001600061E08C2F8F70CF910C947900CF93DF9347
:10017000EC018991811103C0DF91CF9108950E9414
:10018000A900F7CF811180E4860F80680C9492005B
:1001900081E00E9492008FE39FE10197F1F700C098
:1001A000000008950F931F93CF93DF93182F062F0E
:1001B000D42FC52F0E94C800602F812F0E94C2003B
:1001C0008D2F9C2FDF91CF911F910F910C94B60032
:1001D000CF93DF93D42FC52F0E94C2008D2F9C2F69
:1001E000DF91CF910C94B60084B1876084B92FEF72
:1001F00083EF91E0215080409040E1F700C0000083
:1002000060E083E00E9479008FE19EE40197F1F7BE
:1002100000C0000060E083E00E94790087E592E082
:100220000197F1F700C0000060E083E00E947900D0
:1002300060E082E00E94790088E20E9492008CE0F7
:100240000E94920081E00E9492008FE39FE101975B
:10025000F1F700C0000086E00E9492000C94C800F4
:10026000CDB7DEB7AC970FB6F894DEBF0FBECDBFEB
:10027000259A8AB1806D8AB9559881E2E0E0F1E073
:10028000DE01119601900D928A95E1F70E94F4002B
:1002900049E351E060E080E00E94D200B12C6E01A1
:1002A00081E2C80ED11CAA24A3940E944B00F82E10
:1002B000B816D9F3FE01B29627E030E0AF01682FFF
:1002C00070E0CB01022E02C0959587950A94E2F763
:1002D00081709927C09681932150310990F71AA611
:1002E00060E080E00E94E8008E010F5F1F4FF80180
:1002F0008081982F9F2101F18B21F1F4E180EA2484
:10030000E1824281538160E081E00E94E8004EE397
:1003100051E063E081E00E94E8004AE0BE01655DD3
:100320007F4F8E2D90E00E94A301AE01455D5F4F8F
:1003300069E081E00E94E8000C5F1F4FC016D10603
:10034000B1F6BF2CB2CFBB274A3031F4992322F447
:10035000BDE2909581959F4F0C94AF01BB27FB01A7
:100360005527AA27880F991FAA1FA41710F0A41BAE
:1003700083955051B9F7A05DAA3308F0A95DA19308
:10038000009779F7B111B1931192CB010C94C80188
:10039000DC01FC01672F71917723E1F7329704C0EC
:1003A0007C916D9370836291AE17BF07C8F3089577
:0403B000F894FFCFEF
:1003B40001002101020024010400270108002A0190
:1003C40010002D012000300140003301800036016F
:1003D40000743100743200743300743400743500D6
:1003E4007436007437007438007465737400737461
:0603F4006174653A20006F
:00000001FF
