:100000000C9434000C9449000C9449000C94490061
:100010000C9449000C9449000C9449000C9449003C
:100020000C9449000C9449000C9449000C9449002C
:100030000C9449000C9449000C9449000C9449001C
:100040000C9449000C9449000C9449000C9449000C
:100050000C9449000C9449000C9449000C944900FC
:100060000C9449000C94490011241FBECFEFD8E036
:10007000DEBFCDBF11E0A0E0B1E0EAEAF3E002C0EC
:1000800005900D92AE30B107D9F70E9430010C9463
:10009000D3010C9400005F9825E02A95F1F7000049
:1000A0005F9A5C9898E080E0880F4D9981605E9A35
:1000B00025E02A95F1F700005E989150A9F75C9A27
:1000C0008095089527E030E090E0AC01022E02C058
:1000D000559547950A94E2F740FF09C0289A299A56
:1000E00029982150310988F72A9A2A980895289842
:1000F000F6CFCF93C82FC295C07F6111C1608C2FFE
:1001000084600E94620085E08A95F1F700008C2FE0
:100110000E94620087EC90E00197F1F700C00000B8
:10012000CF910895CF93C82F60E082958F700E9481
:10013000790060E08C2F8F700E947900C150C2302E
:1001400030F48FE39FE10197F1F700C00000CF91F9
:100150000895CF93C82F61E082958F700E94790037
:1001600061E08C2F8F70CF910C947900CF93DF9347
:10017000EC018991811103C0DF91CF9108950E9414
:10018000A900F7CF811180E4860F80680C9492005B
:1001900081E00E9492008FE39FE10197F1F700C098
:1001A000000008950F931F93CF93DF93182F062F0E
:1001B000D42FC52F0E94C800602F812F0E94C2003B
:1001C0008D2F9C2FDF91CF911F910F910C94B60032
:1001D000CF93DF93D42FC52F0E94C2008D2F9C2F69
:1001E000DF91CF910C94B60084B1876084B92FEF72
:1001F00083EF91E0215080409040E1F700C0000083
:1002000060E083E00E9479008FE19EE40197F1F7BE
:1002100000C0000060E083E00E94790087E592E082
:100220000197F1F700C0000060E083E00E947900D0
:1002300060E082E00E94790088E20E9492008CE0F7
:100240000E94920081E00E9492008FE39FE101975B
:10025000F1F700C0000086E00E9492000C94C800F4
:10026000CDB7DEB729970FB6F894DEBF0FBECDBF6E
:10027000259A8AB1806D8AB955980E94F40040E0B1
:1002800051E060E080E00E94D2000E944B00182FF5
:10029000B12CAA24A394812E0E944B00182FC82EA3
:1002A000D12C8816C1F0FE01319627E030E0AF0175
:1002B000C601022E02C0959587950A94E2F78170D7
:1002C0009927C09681932150310990F7198660E0F3
:1002D00080E00E94D200F12CE12C912CC6010E2C62
:1002E00002C0959587950A94E2F780FF1FC0C4016C
:1002F0000E2C02C0959587950A94E2F780FD16C0F2
:10030000BA2445E051E060E081E00E94E8004AE064
:10031000BE016F5F7F4F8B2D90E00E949E01AE016A
:100320004F5F5F4F67E081E00E94E8008FEFE81ABF
:10033000F80A88E0E816F10489F6ADCFBB274A3009
:1003400031F4992322F4BDE2909581959F4F0C944E
:10035000AA01BB27FB015527AA27880F991FAA1FAF
:10036000A41710F0A41B83955051B9F7A05DAA33D0
:1003700008F0A95DA193009779F7B111B19311929B
:10038000CB010C94C301DC01FC01672F7191772331
:10039000E1F7329704C07C916D9370836291AE1740
:0A03A000BF07C8F30895F894FFCFDB
:0E03AA00746573740073746174653A2000000A
:00000001FF
